:020000040800F2
:10000000604D00241904000841480008114200080E
:1000100001480008F3170008055C00080000000014
:10002000000000000000000000000000590300086C
:10003000F517000800000000B5030008594F00083C
:1000400037040008370400083704000837040008A4
:100050003704000837040008F917000819180008C9
:10006000391800083704000837040008370400086E
:100070003704000837040008370400083704000874
:100080003704000837040008370400083704000864
:100090003704000837040008370400083704000854
:1000A0003704000837040008370400083704000844
:1000B0003704000837040008370400083704000834
:1000C0003704000837040008370400083704000824
:1000D0003704000837040008370400083704000814
:1000E0003704000837040008000000003704000847
:1000F00037040008370400083704000837040008F4
:1001000037040008370400083704000837040008E3
:100110003704000837040008370400082551000898
:1001200037040008370400083704000837040008C3
:1001300037040008370400083704000837040008B3
:1001400000000000000000000000000000000000AF
:100150003704000837040008370400083704000893
:100160003704000837040008370400083704000883
:1001700037040008370400083704000800000000B6
:100180003704000837040008370400083704000863
:100190003704000837040008370400083704000853
:1001A0003704000837040008370400083704000843
:1001B0003704000837040008370400083704000833
:1001C0003704000837040008370400083704000823
:1001D0003704000837040008370400083704000813
:1001E0003704000837040008370400083704000803
:1001F00037040008370400083704000837040008F3
:1002000037040008370400083704000837040008E2
:1002100037040008370400083704000837040008D2
:100220003704000837040008370400080000000005
:1002300037040008370400080000000037040008F5
:1002400037040008370400083704000837040008A2
:100250003704000837040008370400083704000892
:100260003704000837040008370400083704000882
:1002700037040008370400083704000800000000B5
:1002800037040008370400083704000800000000A5
:10029000000000003704000800F002F800F04CF8FD
:1002A0000AA090E8000C82448344AAF10107DA45D1
:1002B00001D100F041F8AFF2090EBAE80F0013F0D7
:1002C000010F18BFFB1A43F001031847886B0000A9
:1002D000A86B0000103A24BF78C878C1FAD852073A
:1002E00024BF30C830C144BF04680C6070470000B0
:1002F0000023002400250026103A28BF78C1FBD82F
:10030000520728BF30C148BF0B607047662906F00E
:10031000E682642900F03081002070471FB506F0A6
:10032000D9FA00F035FD04000020002106F0BCFAE7
:10033000E0601FBD10B510BD00F02AFE1146FFF7AA
:10034000EDFF05F091FC00F048FE03B4FFF7F2FF6B
:1003500003BC00F07FFE00002C4B19680868B0E871
:10036000F04F80F30988BFF36F8F4FF0000080F3E8
:10037000118870470000000008480068006880F39A
:1003800008884FF0000080F3148862B661B6BFF3AE
:100390004F8FBFF36F8F00DF00BF00BF08ED00E09D
:1003A000DFF80C00016841F470010160704700BF84
:1003B00088ED00E0EFF30980BFF36F8F134B1A68ED
:1003C0001EF0100F08BF20ED108A20E9F04F1060DA
:1003D00009B44FF0500080F31188BFF34F8FBFF383
:1003E0006F8F06F099F84FF0000080F3118809BC78
:1003F00019680868B0E8F04F1EF0100F08BFB0ECA5
:10040000108A80F30988BFF36F8F70476C00002457
:10041000EFF30580704700000A4880470A4880478C
:100420000A480047FEE7FEE7FEE7FEE7FEE7FEE7D5
:10043000FEE7FEE7FEE7FEE705480649064A074BEA
:1004400070470000791800082D5000089902000834
:1004500060470024604D0024604900246049002466
:1004600053EA020C00F069802DE9F04B4FF00006D2
:10047000002B1FBFB3FA83F503FA05F424FA05F63F
:100480005E4012BF1643B2FA82F502FA05F4C5F1D6
:1004900020051EBF22FA05FC44EA0C04203556EA6A
:1004A000044C4FEA144418BF641C4FF000084FF08E
:1004B0000009904271EB030C39D3002919BFB1FA3E
:1004C00081F701FA07F6B0FA80F700FA07F6C7F1EC
:1004D00020071EBF20FA07FC46EA0C062037B6FBB1
:1004E000F4FCA7EB0507103F07F01F0BCBF120062C
:1004F0000CFA0BFB2CFA06F644BFB3460026202F5D
:10050000A4BF5E464FF0000B5BEA060C08BF4FF03D
:10051000010B19EB0B09ABFB027C48EB0608C01B77
:1005200006FB02CC0BFB03CC71EB0C01C1E70B46C5
:10053000024641464846BDE8F08B13B54FF0000037
:100540004FF00001AFF30080BDE81C407047000091
:100550000FB41CB5074B06AA7B446946009005986A
:1005600000F0FDFB0020694600F00CFC1CBC5DF8AF
:1005700014FB0000290800002DE9F0410646002484
:1005800010687529314616A510D0AFF300800028F9
:1005900002DA404213A507E031688A0701D512A5A7
:1005A00002E0490704D511A5012401E0AFF3008062
:1005B00000210A2206F1240709E0B0FBF2FCB0FB9F
:1005C000F2F302FB1C00303078541846491C002816
:1005D000F3D123462A463046BDE8F04100F052B937
:1005E000000000002D0000002B0000002000000093
:1005F0002DE9F0474FF0000A89460446C0F820A0D4
:100600002046E1688847002876D0252806D0D4E91E
:1006100001219047206A401C2062F1E7E1682046F2
:1006200000258847C4F81CA006460027C4F818A077
:100630002A2E09D0304605F010FB38B304EB8708AA
:10064000303EC8F8186019E059F8041B204604EB46
:1006500087029161E1688847012F064618D1E06959
:10066000002820DA25F020051DE0D8F8180000EB5E
:10067000800006EB40003038C8F818002046E168DA
:100680008847064605F0E9FA0028EED1012F0AD086
:100690002E2E08D12046E16888477F1C0646022F8F
:1006A00045F02005C4DBA069002803DA404245F08C
:1006B0000105A061E80701D025F01005B6B1A6F14B
:1006C0004100192802D8203645F400654A463146D3
:1006D000204625604D46FFF719FE58B1012806D087
:1006E000ED1D25F0070000F1080989E704E005F198
:1006F000040985E730468AE7206ABDE8F087032AC7
:1007000040F2308010F0030C00F0158011F8013B2E
:10071000BCF1020F624498BF11F801CB00F8013B15
:1007200038BF11F8013BA2F1040298BF00F801CBD9
:1007300038BF00F8013B11F0030300F02580083AB0
:10074000C0F0088051F8043B083A51F804CBA0E807
:100750000810F5E7121D5CBF51F8043B40F8043B5C
:10076000AFF30080D20724BF11F8013B11F801CB91
:1007700048BF11F8012B24BF00F8013B00F801CB62
:1007800048BF00F8012B704710B5203AC0F00B802D
:10079000B1E81850203AA0E81850B1E81850A0E885
:1007A0001850BFF4F5AF5FEA027C24BFB1E81850DF
:1007B000A0E8185044BF18C918C0BDE810405FEA4F
:1007C000827C24BF51F8043B40F8043B08BF7047CB
:1007D000D20728BF31F8023B48BF11F8012B28BFD0
:1007E00020F8023B48BF00F8012B70474FF0000291
:1007F0000429C0F0128010F0030C00F01B80CCF133
:10080000040CBCF1020F18BF00F8012BA8BF20F8A0
:10081000022BA1EB0C0100F00DB85FEAC17C24BFF4
:1008200000F8012B00F8012B48BF00F8012B70479E
:100830004FF0000200B5134694469646203922BF79
:10084000A0E80C50A0E80C50B1F12001BFF4F7AFC4
:10085000090728BFA0E80C5048BF0CC05DF804EBA6
:10086000890028BF40F8042B08BF704748BF20F814
:10087000022B11F0804F18BF00F8012B7047704712
:10088000704770472DE9F0470D4699469246044659
:1008900000F124080168880604D5E06921F0100100
:1008A000216000E00120A84201DD471B00E0002795
:1008B000A1697A1902EB0900081AA0612078C00624
:1008C00002D42046AFF30080002608E0D4E90121DD
:1008D0001AF806009047206A401C761C20624E459C
:1008E000F4DB2078C0060AD52046AFF3008006E08E
:1008F000D4E9012130209047206A401C2062381E34
:10090000A7F10107F4DC07E0D4E9012118F805009C
:100910009047206A401C2062281EA5F10105F3DCE7
:100920002046AFF300802078000602D50220BDE803
:10093000F0870120FBE770472DE9FF4F0C461E466C
:100940004FF0FF378BB0D2E90001DDF860800A90EC
:100950008A46C1F30A5505B93D46002108464FF0C5
:100960000000BAF1000F00F4400005DA00EB80004F
:100970004FF4400101EA50004FEA9059B9F1010FDC
:1009800000DDB9460A9850EA4A000ED044F61050ED
:10099000A5F2FF3545432F14B8F1000F1ED0754264
:1009A000291E1EDDC9F100021CE0B8F1010F4FF055
:1009B000000001D0302103E0F24305E02154401C47
:1009C000B042FBDB30460022002121540B99C1F8D4
:1009D0000880C1E900200FB0BDE8F08FBD1B6D1C81
:1009E000DEE74A4600DA694206A800F05BFA06AB89
:1009F00093E8070003AB83E8070050460A9900F02C
:100A000030FB8DE80700A0F500501F3800900398D8
:100A1000002D0ADD42F21F014A460844002303A9C3
:100A20000390684600F099FD09E0A0F500504A46A1
:100A30001F38002303A90390684600F0A3FD8DE84A
:100A400007000004000C03D04FF0FF30410800E025
:100A50001046B8F1000F03D00022009215461EE0A8
:100A6000751E05D400F098F9303262556D1EF9D527
:100A7000B3460122084302D000227F1C04E0207804
:100A8000302801D100227F1E002A099784D01DE062
:100A9000112D07DA00F080F9303262556D1C50EAF2
:100AA0000102F5D1084302D00098C8B10EE0002140
:100AB000681E05E0235C625C63542254401E491C9E
:100AC0008142F7DBAB46A81B401E0990002004F8CA
:100AD0000B000B98099AC0F80880C0E9002B7AE750
:100AE00011264FF0000857E72DE9F04F88460446DD
:100AF000D21D22F0070191B0D1E90001CDE90A0130
:100B000005F082F802460B98C00F01D02D2007E0B7
:100B10002068810701D52B2002E0202101EAC000D6
:100B2000032A099001D0072A05DB034641462046E7
:100B300000F078F90BE12078800601D5E06900E04B
:100B40000620B8F1650F814606D0B8F1660F18D0BF
:100B5000B8F1670F70D131E00020B9F1110F0090AA
:100B600001DB112301E009F101030AAA01A90CA884
:100B7000FFF7E2FEDDE90C70002609F1010583466E
:100B800047E001204B4600904FF000470AAA01A918
:100B90000CA8FFF7D1FEDDE90DB00C995D460026EB
:100BA00010B909F101000D18B9EB050003D4C0F12B
:100BB000FF3609F10105A5EB09002BE0B9F1010FA2
:100BC00001DA4FF001090020B9F1110F00904846F9
:100BD00001DD112300E003460AAA01A90CA8FFF7D2
:100BE000ABFEDDE90C704D460026834620780007F9
:100BF0000AD4AB4500DA5D4601A8012D04DD411998
:100C000011F8011C302907D04F4502DA17F1040F03
:100C100004DA012082460FE06D1EEEE7002F02DCB1
:100C2000ED1B3E4403E0781CA84200DD7D1CB81B90
:100C300000F1010A4FF000472078000703D4AA45CD
:100C400001DB4FF0FF3A0021B7F1004F0DF14308EF
:100C50008DF8431024D002202B23002F01DA7F428D
:100C60002D230A21021EA0F1010000DC5FB197FBD9
:100C7000F1FC97FBF1F201FB1C7C17460CF1300CE8
:100C800008F801CDEEE7A8F10100037021880905FD
:100C900001D5452100E06521A0F1010800F8011C03
:100CA00009980FA9A1EB0807FF1D00B10120411908
:100CB00001EBEA70A1693844081A401EA06120784F
:100CC000C00602D42046AFF30080099828B1D4E9C9
:100CD00001219047206A401C20622078C00622D55E
:100CE0002046AFF300801EE0002E04DBB34502DD9A
:100CF00001A8805D00E03020D4E901219047206AFE
:100D0000401C2062761CAAF101005FEA000A0AD1A9
:100D100000F03EF8C0680168405CD4E901219047CA
:100D2000206A401C2062281EA5F10105DCDC07E0DA
:100D3000D4E9012118F8010B9047206A401C206279
:100D4000381EA7F10107F3DC2046AFF30080032033
:100D500011B041E601694A1C02610878704700B58C
:100D60008FB0CDE901310021059105497944CDE9E4
:100D7000031011466846FFF73BFC0FB000BD0000B2
:100D8000E5FFFFFF0A6802F8010B0A6070470000E8
:100D9000004870471C47002430B5B0F10A024FEA02
:100DA000900E71F100034EEA817EB0EB0E0061EB14
:100DB00091014FEA101E4EEA017E10EB0E0041EB4E
:100DC00011114FEA102E4EEA016E10EB0E0041EBAE
:100DD00011214FEA104E4EEA014E10EB0E0041EB8E
:100DE0001141401841F100014FEAD00040EA417042
:100DF0004FEAD10110EB80054FEA810444EA907478
:100E000044EB01046D1944EB0404521BA3414FF061
:100E1000000348BF0A3200D530BD401C41F100013B
:100E200030BD00002DE9F0411F460446032601684D
:100E3000072A01F4006004DB08B116A505E016A539
:100E400003E008B115A500E015A521F01000206011
:100E5000A069C01EA0610FB1401EA0612046AFF383
:100E600000804FB1D4E9012138469047206A401CE8
:100E70002062C01C206206E0206AFAE7D4E9012162
:100E800015F8010B9047761EF8D22046AFF300808C
:100E9000BDE8F0814E414E006E616E00494E460045
:100EA000696E66002DE9F047814616468AB03548DE
:100EB00078440DC88DE80D0032487844801C03AC9E
:100EC0000DC884E80D0041F69B300844372190FBA3
:100ED000F1F290FBF1F5A5F1800501FB12041B3C3A
:100EE00002D56442012000E00020DFF898A080468F
:100EF0000027FA44AAF1BE0A0EE0E0070AD0324603
:100F0000684607EB470101230AEB810100F03AFB39
:100F10008DE8070064107F1C002CEED1194F7F4430
:100F2000AE3F19E0E80715D007EB04100DF1180AE1
:100F300090E80E008AE80E00C068F04201D19819CE
:100F400008903246012306A903A800F01BFB03AB5F
:100F500083E807006D10641C002DE3D14FF00103FE
:100F600032466946B8F1000F03A802D000F0F5FA46
:100F700001E000F007FBC9E90001C9F808200AB048
:100F8000BDE8F0877C5F000000487047FC46002405
:100F90007546FFF7F9FFAE4605006946534620F057
:100FA0000700854618B020B5FFF746FABDE8204097
:100FB0004FF000064FF000074FF000084FF0000B15
:100FC00021F00701AC46ACE8C009ACE8C009ACE8C8
:100FD000C009ACE8C0098D46704710B50446AFF3B0
:100FE00000802046BDE81040FFF7AFB94FF0013C4C
:100FF00050F8042B51F8043B9A4215D1A2EB0C0394
:10100000934313EACC130BD150F8042B51F8043B53
:101010009A4209D1A2EB0C03934313EACC13E7D015
:101020004FF00000704700BFD01A01BAB1FA81F149
:1010300001F0180122FA01F0CB40C1F12001DBB22E
:10104000C0B2C01A2CFA01F3D11A914311EAC311AC
:10105000E6D1704701491820ABBEFEE7260002002A
:1010600070475FEA400C08BF91F0000F4FEA8C23F5
:101070004FEAC12243EA51514FEA1C5018BF00F514
:10108000F0404FEA300018BF41F000415FEA6C5C6D
:1010900000F02980BCF1FF3F08BF40F0804070475E
:1010A000130C06BF12044FF0100C4FF0000C130E7F
:1010B00004BF12020CF1080C130F04BF12010CF153
:1010C000040C930F04BF92000CF1020CD30F04BF69
:1010D00052000CF1010C11464FF00002A0F11F006C
:1010E000A0EB0C00704711F0004F08BF704731F0C3
:1010F00000413FF4D5AF0B0C06BF09044FF0100CB4
:101100004FF0000C0B0E04BF09020CF1080C0B0F82
:1011100004BF09010CF1040C8B0F04BF89000CF112
:10112000020CCB0F04BF49000CF1010CCCF12003E1
:10113000A0EB0C0022FA03F302FA0CF241EA0301DD
:1011400000F10100704720F07F4C80EA030023F09B
:101150007F47ACEB070303F57C5300F0004003F13D
:10116000FF032DE980494FEA154B09B44FEA1443B8
:1011700025EA0B4E24EA03480FF2042606EB132758
:1011800049083E785FEA320203FB0667C7F50007AD
:1011900007FB06F64FEA54374FEAD64606F1020639
:1011A00007FB066CCCF1005C4FEA1C472CEA074CAD
:1011B00007FB06F40CFB06F504EB15464FEA961602
:1011C00034BF00204FF000404FEAD13706FB07FC48
:1011D0004FEA1C4C0CFB0BF7D21B03FB0CF761EB2B
:1011E00007010CFB0EF7B0EB074072EB17420CFB4C
:1011F00008F734BFA2EB0742B2EB074261EB17419D
:101200004FEA0C444FEA910706FB07FC4FEA1C4CDF
:101210000CFB0BF7B0EBC74072EB573203FB0CF73C
:1012200034BFA2EBC742B2EBC74261EB57310CFBB4
:101230000EF7B0EBC70072EB57720CFB08F734BF28
:10124000A2EBC702B2EBC70261EB5771039F4FEAF3
:10125000816141EA921104EBCC044FEAD1374FEAA5
:10126000826206FB07FC42EA90124FEA80604FEA76
:101270001C4C0CFB0BF7D21B03FB0CF761EB0701BB
:101280000CFB0EF7B0EB074072EB17420CFB08F7B4
:1012900034BFA2EB0742B2EB074261EB17414FEAC2
:1012A0008C554FEA910704EB9C2406FB07FC4FEAA0
:1012B0001C4C0CFB0BF7B0EBC74072EB573203FB37
:1012C0000CF734BFA2EBC742B2EBC74261EB573118
:1012D0000CFB0EF7B0EBC70072EB57720CFB08F774
:1012E00034BFA2EBC702B2EBC70261EB577115EB3B
:1012F0004C254FEA816141EA92114FEA82624FEA3E
:10130000D13742EA901206FB07FC44F100044FEA91
:1013100080604FEA1C4C0CFB0BF7D21B03FB0CF755
:1013200061EB07010CFB0EF7B0EB074072EB1742C5
:101330000CFB08F734BFA2EB0742B2EB074261EBAC
:10134000174115EB1C154FEA813141EA92414FEAF2
:10135000823242EA90424FEA80304FEA0C7644F102
:10136000000448EA03434EEA0B484FF0000EB2EB8C
:10137000080C71EB030724BF624639464EEB0E0E94
:101380004FF0000B0018524149414BEB0B0BB2EBF5
:10139000080C71EB03077BF1000B24BF6246394652
:1013A0004EEB0E0E4FF0000B0018524149414BEB33
:1013B0000B0BB2EB080C71EB03077BF1000B24BFA6
:1013C000624639464EEB0E0E51EA020718BF46F050
:1013D000010616EB0E7655F1000254F1000103D51B
:1013E000BDE88901BDE80088BDE88901BDE8004885
:1013F000B619524141EB0101A3F10103704780800E
:101400007F7E7D7C7B7A797877767675747372715E
:1014100071706F6E6E6D6C6C6B6A6A696868676616
:1014200066656464636362616160605F5F5E5E5DA8
:101430005D5C5C5B5B5A5A5959585857575656551C
:1014400055555454535352525251515050504F4F7E
:101450004F4E4E4D4D4D4C4C4C4B4B4B4A4A4A49CE
:101460004949484848474747474646464545454411
:101470004444444343434342424242414141002B9E
:101480009C4630D477002BD01CB54FEA370703B405
:101490004FF010004FF01001BAF1000F06D0BCF170
:1014A000000FDCBF40F0080040F008014FF00000E2
:1014B0000FBCBDE810400BF1010BBBF1010F08BFE1
:1014C0005FEA170722BF12F1010211F101014FF08B
:1014D000004143F1000300F0004043EA0000704780
:1014E000F9D35708D0E746EA064613F1400F4FEA12
:1014F00016461FDD13F1200FDFBF16430A460021F9
:1015000020335B42BED0C3F1200746EA064602FA0A
:1015100007F74FEA164646EA0706C3F1200722FA04
:1015200003F201FA07F721FA03F14FF0000342EA50
:101530000702A7E746EA020646EA06464FEA1646CB
:1015400046EA0106BCBF46EA0646360C4FF00003E9
:101550004FF000024FF0000194E72DE9804C9A46CD
:10156000934670B491E8380007C831EA400C48BF90
:1015700034EA430C03D5FFF7E6FDFFF780FFF0BC2C
:10158000BDE8008C2DE9804C9A46934670B491E8F2
:10159000380007C810F0804F08BF13F0804F03D108
:1015A00000F005F8FFF76BFFF0BCBDE8008C20F001
:1015B0007F4780EA030023F07F4C07EB0C03A3F581
:1015C0007C5300F00040A3F1FE0392F0000F00F006
:1015D000B38095F0000F00F077802DE901494FEAC4
:1015E00011404FEA144621EA004800FB06FC24EAB9
:1015F000064708FB06F607FB08F800FB07F718EBA1
:1016000006484CEB164C4FEA124B18EB07484FEAD2
:1016100015464CEB174022EA0B4E0BFB06FC25EA65
:1016200006470EFB06F607FB0EFE0BFB07F71EEB4D
:10163000064E4CEB164C4FF000061EEB074E4CEBE3
:10164000174B18EB0B0840F1000018EB0E0B58EB92
:10165000000840F100008F1A4FF000013CBFC94361
:10166000661B14BFB5EB040C00213CBFC943F61B3D
:101670004FEA17444EEA8E0E27EA04454FEA1C470C
:1016800004FB07622CEA074C05FB07F70CFB05F689
:1016900004FB0CFC16EB074642EB174216EB0C461C
:1016A00042EB1C421BEB060658EB0202414146EAA4
:1016B0009E0601D5BDE80189B619524141EB0101F1
:1016C000A3F10103BDE801894FEA14454FEA114730
:1016D00024EA054621EA074C05FB07F406FB07F759
:1016E0000CFB06F105FB0CFC11EB074144EB174426
:1016F0004FEA124711EB0C4144EB1C4422EA074C21
:1017000005FB07F206FB07F70CFB06F605FB0CFCD6
:1017100016EB074642EB174216EB0C4642EB1C4514
:101720006A1854F1000148BF7047B619524141EBA5
:101730000101A3F10103704795F0000F37D04FEA84
:1017400011424FEA144721EA024624EA074C02FB01
:1017500007F106FB07F70CFB06F402FB0CFC14EB8D
:10176000074441EB17414FEA154714EB0C4441EB9A
:101770001C4125EA074C02FB07F506FB07F70CFBAB
:1017800006F602FB0CFC16EB074645EB174516EB7D
:101790000C4645EB1C42121951F1000148BF70473D
:1017A000B619524141EB0101A3F1010370474FEA21
:1017B00014454FEA114724EA054621EA074C05FB88
:1017C00007F106FB07F70CFB06F24FF0000605FBDE
:1017D0000CFC12EB074241EB174112EB0C4251EBB0
:1017E0001C4148BF7047921841EB0101A3F101036E
:1017F0007047FEE7704700000548DFED060A90EDF0
:10180000000A30EE600A80ED000A012000F055B8B1
:1018100038000024000048420548DFED060A90ED3C
:10182000000A30EE200A80ED000A022000F045B8E0
:101830003800002400004842042000F03EB80000B8
:1018400000B500F005F80148006800BD6400002400
:1018500003480168416003490968496A01607047AB
:1018600064000024C803002401483C2102F058B958
:10187000C803002472B6FEE7054805490839026826
:1018800042F00202026008688004FCD57047000044
:101890000C48025870B5044600F03EF90546601C3D
:1018A00002D004480078044400F036F9401BA042FE
:1018B000FAD370BD4C00002470474FF0B04110B512
:1018C000D1F88820024203D0C1F88800FFF7F4FF66
:1018D00010BD00002DE9F84F03247D4D00234FF08B
:1018E00001094FF0B04B4FF00F0AE9E009FA03F796
:1018F0003A4076D00E7906F00306012E01D0022E72
:1019000018D1D0F808C04FEA430ECE6804FA0EF89A
:101910002CEA080C06FA0EF646EA0C068660D0F8A9
:1019200004C00E792CEA070CC6F300169E4046EA66
:101930000C0646600E79F643B6070BD0C6684FEA30
:1019400043088F6804FA08FC26EA0C0607FA08F731
:101950003743C7600E7906F00306022E12D1DE0867
:101960000F694FEA437C00EB8606B646366A4FEABB
:10197000DC6C0AFA0CF807FA0CF726EA080637437B
:10198000CEF820700F7906684FEA430807F0030786
:1019900004FA08FC07FA08F726EA0C063743076042
:1019A0004E6816F4403F1CD04A4E376847F0020795
:1019B000376036689F0706F00206009623F003069C
:1019C00006F1B046B6463F0FD6F80864DFF8088146
:1019D0000AFA07FC404526EA0C0603D14FF0000C3A
:1019E00041E06CE0DFF8F4C0604502D14FF0010C3B
:1019F00039E0DFF8ECC0604502D14FF0020C32E074
:101A0000DFF8E0C0604502D14FF0030C2BE0DFF8B7
:101A1000D8C0604502D14FF0040C24E0DFF8CCC000
:101A2000604502D14FF0050C1DE0DFF8C4C06045F1
:101A300002D14FF0060C16E0DFF8B8C0604502D1C5
:101A40004FF0070C0FE0DFF8B0C0604502D14FF057
:101A5000080C08E0DFF8A4C0604502D14FF0090C83
:101A600001E04FF00A0C0CFA07FC4CEA060CCEF829
:101A700008C44F68DBF80060FF0226EA020600D5C2
:101A800016435F46CBF80060D1F804C0DBF8046071
:101A90005FEA8C2C26EA020600D516437E606E684B
:101AA0004F6826EA0206BF0300D516436E602E6813
:101AB0004F6826EA0206FF0300D516432E605B1C22
:101AC0000A6832FA03F67FF411AFBDE8F88F000020
:101AD00080000058F44402580000025800040258E4
:101AE00000080258000C0258001002580014025856
:101AF00000180258001C0258002002580024025806
:101B00000AB1816170470904FBE7000001480068E1
:101B1000000C70470010005C0148806870470000AE
:101B20004C00002430B590F84120202A24D190F8B0
:101B30004020012A20D0012380F84030242280F860
:101B40004120202300240268156825F00105156056
:101B50000268156825F480551560026815680D4304
:101B6000156001680A6842F001020A6080F841309D
:101B700080F84040002030BD022030BD30B590F8E4
:101B80004120202A22D190F84020012A1ED0012392
:101B900080F84030242280F841202024002502686B
:101BA000136823F0010313600268136823F4706361
:101BB00043EA0121116001680A6842F001020A60EB
:101BC00080F8414080F84050002030BD022030BDF8
:101BD00070B5040004D094F84100002510B106E06F
:101BE000012070BD204684F8405000F0F7F8242012
:101BF00084F841002068016821F001010160D4E906
:101C0000001020F0706008612068816821F40041B4
:101C10008160E06821680128A06830D040F4044069
:101C20008860E0680228206841682BD021F40061B8
:101C3000416020682021154A4368134343602068AF
:101C4000C26822F40042C26054F8106B0DCC1043FD
:101C500040EA0320F06054F81C3CD4E90002104331
:101C6000186054F81C0D026842F0010202606564BD
:101C700084F84110256384F84250002070BD40F480
:101C80000040CDE741F40061D2E70000008000028F
:101C90002DE9FF4F81B0044690F8410099469046E7
:101CA000DDF838B020287BD194F84000012877D0A7
:101CB000012084F84000FFF72FFF01220646192378
:101CC0000090D103204602F055FB002853D1414932
:101CD00021220025C4F82480102084F84120FF2709
:101CE00084F842006564A4F82A90608D4FF08079F2
:101CF0004FF0007A6563FF2802D94B46278505E03F
:101D0000608D534620850004000C10D0226898F89E
:101D100000009062606A401C6062608D401E6085B9
:101D2000208D401E2085401C0091C2B201E000229F
:101D300000910299204602F005FB13E002F084FBBB
:101D4000C8B9606A216800788862606A401C606275
:101D5000608D401E6085208D401E80B22085618D83
:101D600001B160B1608D3246594600282046E5D168
:101D700002F03EFBE0B1012005B0BDE8F08F00228B
:101D80005B4680212046009602F0F4FA0028F2D14A
:101D9000608DFF2805D927853A464B460095C8E750
:101DA00016E0608D53462085009594F82820C0E702
:101DB00021682020084AC86121684B6813404B60A5
:101DC00084F8410084F84250002084F84050D3E762
:101DD0000220D1E70020008000E800FE10B5B6B078
:101DE0000446142130A8FEF723FDC0216846FEF703
:101DF0001FFD1949206888422BD10020219008211D
:101E00000446CDE90010684600F0C8FA08B1FFF7B3
:101E100031FD1248016841F002010160006830ABF9
:101E2000122100F0020035904FF44070042283E844
:101E300013000B4830A9CDE93342FFF74BFD0748AB
:101E40000830016841F400110160006800F40010DE
:101E5000359036B010BD000000540040E0440258F8
:101E6000000402580248816802781144816070477A
:101E70004C000024032010B500F0FEF801F006F934
:101E80000F4A104914681368C4F3032203F00F03C8
:101E90008A5CC95C02F01F0201F01F01D0400A4AAF
:101EA00020FA01F1116009490860012000F010F8E2
:101EB00008B1012010BD00F09FF8002010BD000007
:101EC00018440258286900085C00002458000024C7
:101ED00010B5102804468AB02CD2002201463720C3
:101EE00000F0AAF8372000F099F817480460174866
:101EF000016841F020010160006809A900F020009C
:101F00000890684601F04EF80598B0B101F09AF8D3
:101F100040000F4900220F4CB0FBF1F10E4840F297
:101F2000E7330460C0E90332491EC0E9011201F041
:101F30005FFC28B101200AB010BD01F083F8E8E78A
:101F4000054801F099FCF6E750000024E8440258E7
:101F500040420F00001400403C050024154BF0B532
:101F6000083B427813491A600B680A1F23F00103EB
:101F70000B6043681360057BC67A827A437B2D072A
:101F8000847B45EA0665C77B90F809C0067A90F81D
:101F900000E045EAC24040EA834040EA444040EA6B
:101FA000074040EA0C2040EA460040EA0E00086084
:101FB000F0BD0000A0ED00E0BFF35F8F04480021FA
:101FC0000368034A23F48033036070321160704762
:101FD00024ED00E0074A40F001000649703210602D
:101FE000086840F480300860BFF34F8FBFF36F8FF5
:101FF0007047000024ED00E0074882B0016841F01E
:1020000002010160006800220F2100F00200009030
:10201000901E02B000F010B8F4440258002809DB0A
:10202000410900F01F028900012001F1E0219040E8
:10203000C1F80001704700000E4BF0B41B680D465C
:10204000C3F30223C3F10706042E00D90426191D89
:10205000072901D2002300E0DB1E012404FA06F167
:102060009C40491E2940641E994014402143F0BC05
:1020700003F0E2BD0CED00E0064900F0070210B5E8
:102080004FF6FF040868044B204040EA0220184342
:10209000086010BD0CED00E00000FA05134970B5B2
:1020A0000A68D243520705D5096801F00701814249
:1020B00013D118E00A6822F0070202430A60FFF712
:1020C0002BFD0A4D4FF47A760446083D07E000BF29
:1020D000FFF722FD001BB04201D9012070BD286826
:1020E000C0438004F4D4002070BD00000C480258A6
:1020F00010B500F085FF05490968054AC1F30211D2
:10210000515C01F01F01C84010BD0000204402587E
:1021100028690008494930B5484C0B1D0A68143439
:1021200009681D68246802F00303C5F30012C1F3B7
:102130000531C4F3CC04002914FB02F200EE102A8E
:10214000F8EE400A75D03F4A9FED3D1AB7EE000AFF
:102150006BB1DFED3D1A012B01D0022B64D002EEF2
:10216000101A1168F8EE422A81EEA22A21E0334CBF
:10217000283C23689B0612D5344B246801EE901A44
:102180001168C4F3C104F8EE612AE34001EE903A0D
:10219000C1F30801F8EE611A81EEA22A0BE001EE0C
:1021A000901ADFED2B2A00BFF8EE611A116882EE5B
:1021B000A12AC1F3080101EE901A1168F8EE611A24
:1021C00040EE811A71EE800A62EE200AC1F34621C8
:1021D00001EE101AB8EE411A31EE001AC0EE811A63
:1021E000BCEEE11A80ED001A1168C1F3064101EE60
:1021F000101AB8EE411A31EE001AC0EE811ABCEE88
:10220000E11A80ED011A1168C1F3066101EE101A9E
:10221000B8EE411A31EE000A80EE801ABCEEC10A17
:1022200080ED020A30BD04E001EE901ADFED092ACC
:10223000BAE70021016041608160F3E72844025859
:1022400000000039384402580024744A0090D0033A
:102250000024744C20BCBE4B494930B5484C0B1D82
:102260000A681C3409681D68246802F00303C5F37A
:102270000022C1F30551C4F3CC04002914FB02F27F
:1022800000EE102AF8EE400A75D03F4A9FED3D1A45
:10229000B7EE000A6BB1DFED3D1A012B01D0022B26
:1022A00064D002EE101A1168F8EE422A81EEA22ADA
:1022B00021E0334C283C23689B0612D5344B24681C
:1022C00001EE901A1168C4F3C104F8EE612AE340EC
:1022D00001EE903AC1F30801F8EE611A81EEA22AEC
:1022E0000BE001EE901ADFED2B2A00BFF8EE611A29
:1022F000116882EEA12AC1F3080101EE901A11685B
:10230000F8EE611A40EE811A71EE800A62EE200A40
:10231000C1F3462101EE101AB8EE411A31EE001A4F
:10232000C0EE811ABCEEE11A80ED001A1168C1F30B
:10233000064101EE101AB8EE411A31EE001AC0EE55
:10234000811ABCEEE11A80ED011A1168C1F3066131
:1023500001EE101AB8EE411A31EE000A80EE801A32
:10236000BCEEC10A80ED020A30BD04E001EE901A15
:10237000DFED092ABAE70021016041608160F3E7DF
:102380002844025800000039404402580024744A8E
:102390000090D0030024744C20BCBE4B2DE9FE4FAE
:1023A0000546DFF8E48350F8081B0024F64FC943C4
:1023B000019005F12800264608F124080090080144
:1023C0001DD4A86E50B1B0F5801F0CD0B0F5001F21
:1023D0000ED0B0F5401F1ED001240FE0386840F445
:1023E0000030386017E00198022102F051FC03E050
:1023F0000098022102F0DCFC04000CD0264628885C
:10240000C043C00523D4A86D05281ED2DFE800F024
:102410000C11161B1B00AA6ED8F8001021F44011F5
:102420001143C8F80010EAE7386840F4003038601B
:1024300009E00198002102F02BFC03E00098002144
:1024400002F0B6FC044674B100E001242646288858
:10245000C043800528D4E86D80281ED00CDC90B1E4
:1024600040280ED114E0AA6DD8F8001021F0070121
:102470001143C8F80010EAE7C02813D0B0F5807FF8
:1024800010D001240FE0386840F40030386009E0D3
:102490000198002102F0FCFB03E00098002102F00B
:1024A00087FC04469CB126462888DFF8DC92C043AE
:1024B00009F12C0940052CD4D5F8A800B0F5800FFF
:1024C00020D00DDCA0B1B0F5001F0FD115E0EA6DF2
:1024D000D8F8001021F4E0711143C8F80010E3E7C8
:1024E000B0F5C00F13D0B0F5000F10D001240FE0ED
:1024F000386840F40030386009E00198002102F0AB
:10250000C7FB03E00098002102F052FC04467CB1B6
:1025100026462888C04300052DD4D5F8AC00B0F17C
:10252000007F21D00EDCA8B1B0F1807F10D116E081
:10253000D5F8A820D9F8001021F460011143C9F89A
:102540000010E6E7B0F1407F13D0B0F1806F10D0FB
:1025500001240FE0386840F40030386009E0019849
:10256000002102F095FB03E00098002102F020FC1E
:10257000044674B126462868C04380011FD4E86C25
:10258000D8B110280FD0202812D0302815D001241F
:1025900014E0D5F8AC20D9F8001021F0E061114327
:1025A000C9F80010E7E7386840F40030386004E00C
:1025B0000198022102F06CFB044674B1264628887B
:1025C000C043C0042BD4286EB0F5005F20D00DDCD2
:1025D000A0B1B0F5805F0FD115E06B48EA6C2030F8
:1025E000016821F0300111430160E8E7B0F5405F78
:1025F00013D0B0F5804F10D001240FE0386840F4BC
:102600000030386009E00198002102F041FB03E04E
:102610000098002102F0CCFB04468CB126462888A5
:10262000C043800429D4686EB0F5403F23D010DC4D
:1026300008B3B0F5803F14D0B0F5003F0FD115E0DE
:102640002A6ED8F8001021F4E0411143C8F80010B8
:10265000E5E7B0F5802F0ED0B0F5A02F0BD0012408
:102660000AE00198012102F013FB03E00098012128
:1026700002F09EFB044694B126462888C0434004DD
:102680002AD4D5F8B000B0F1405F23D010DC08B3F5
:10269000B0F1805F14D0B0F1005F0FD115E06A6E29
:1026A000D8F8001021F4E0211143C8F80010E4E745
:1026B000B0F1804F0ED0B0F1A04F0BD001240AE052
:1026C0000198012102F0E4FA03E00098012102F0F0
:1026D0006FFB044674B126462888C04300041FD40B
:1026E000286FD8B1B0F1805F0ED0B0F1005F10D08C
:1026F000012414E0D5F8B020D9F8001021F0E04111
:102700001143C9F80010E7E7386840F4003038603A
:1027100004E00198012102F0BBFA044674B1264698
:102720002868C043C0011ED4A86CD0B101280ED0C7
:10273000022811D0032814D0012413E02A6FD8F8FE
:10274000001021F040511143C8F80010E8E7386844
:1027500040F40030386004E00198022102F098FA59
:102760000446ACB126462868DFF81CB0C043ABF184
:102770001C0B400252D40548016841F4807101608D
:10278000FFF7CAF9824611E02C440258004802586B
:10279000FA48AA6C016821F0030111430160E2E7E5
:1027A000FFF7BAF9A0EB0A00642835D8F4480068AE
:1027B000C005F5D58CBBDFF8C4A3B5F8B4100AF199
:1027C000240ADAF8000001F4407100F440708842F5
:1027D00011D0DAF80010DAF8002021F4407142F448
:1027E0008032CAF80020DAF8002022F48032CAF8D9
:1027F0000020CAF80010D5F8B400B0F5807F1AD1D7
:10280000FFF78AF9029012E0FFF786F90299411A60
:1028100041F2883081420AD9032426462878DFF81D
:102820005CA3C0430AF1080AC00721D03CE0DAF8F3
:1028300000008007E8D5D5F8B410C1F301200328C3
:1028400058460DD0016821F47C510160B5F8B420E0
:10285000DAF80010C2F30B021143CAF80010DDE7EA
:10286000C84A036802EA111223F47C511143ECE7D1
:10287000E86F182816D005DCA0B1082808D0102869
:1028800004D10AE020280DD028280BD001240AE02A
:102890000198012102F0FCF903E00098012102F007
:1028A00087FA044664B126462878C04380071ED4C0
:1028B000A86F062819D2DFE800F0160C11161616BC
:1028C000EA6FDAF8001021F038011143CAF800105D
:1028D000EAE70198012102F0DBF903E00098012109
:1028E00002F066FA04467CB100E00124264628780E
:1028F000C04340071FD4D5F89400062819D2DFE85A
:1029000000F0160C11161616AA6FDAF8001021F056
:1029100007011143CAF80010E9E70198012102F00C
:10292000B7F903E00098012102F042FA0446A4B18D
:1029300000E0012426462878C04380062BD4D5F831
:102940009000B0F1405F24D011DC10B3B0F1805F93
:1029500015D0B0F1005F10D116E0D5F89420D9F869
:10296000001021F007011143C9F80010E3E7B0F1AE
:10297000804F0ED0B0F1A04F0BD001240AE0019897
:10298000002102F085F903E00098022102F010FA1C
:10299000044694B126462878C04340062BD4D5F887
:1029A0009C00B0F5406F24D011DC10B3B0F5806FFF
:1029B00015D0B0F5006F10D116E0D5F89020DAF8F8
:1029C000001021F0E0411143CAF80010E3E7B0F530
:1029D000805F0ED0B0F5A05F0BD001240AE0019813
:1029E000002102F055F903E00098022102F0E0F91D
:1029F000044694B126462878C04300062BD4D5F867
:102A0000A000B0F5C04F24D011DC10B3B0F5005FCA
:102A100015D0B0F5804F10D116E0D5F89C20D9F82C
:102A2000001021F4E0511143C9F80010E3E7B0F5BC
:102A3000004F0ED0B0F5204F0BD001240AE00198D2
:102A4000002102F025F903E00098022102F0B0F91C
:102A5000044654B126462878C04300071ED4D5F852
:102A60008400B0F5805F0AD00FE0D5F8A020D9F837
:102A7000001021F460411143C9F80010EBE7009801
:102A8000022102F095F900B10126D5F88420DAF888
:102A9000001021F440511143CAF800102878C043B7
:102AA000C00613D4D5F89800B0F5807F05D1009802
:102AB000022102F07DF900B10126D5F89820D9F85D
:102AC000001021F440711143C9F800102868C04378
:102AD000000316D4D5F8A40038B1B0F5803F09D072
:102AE000B0F5003F0BD001240AE00198002102F06C
:102AF000CFF803E00098022102F05AF904468CB1A5
:102B000026462868C043400322D4D5F88800B0F593
:102B1000801F11D0B0F5001F13D0B0F5401F15D0A5
:102B2000012414E0D5F8A420D9F8001021F4403194
:102B30001143C9F80010E4E7386840F40030386009
:102B400004E00098012102F033F904465CB1264606
:102B50002868C043C00323D4286DA8B1B0F5803FD6
:102B600017D001241BE0D5F88820DAF8001021F4F2
:102B700040111143CAF80010EAE700004C44025823
:102B800000480258CFFFFF00386840F4003038603A
:102B900004E00198022102F07BF80446E4B12646E5
:102BA0002868C043800005D40098022102F000F993
:102BB00000B101262868C04380031BD4D5F88000EB
:102BC000B0B1B0F5807F0FD0B0F5007F10D0B0F578
:102BD000407F0DD001240CE05A482A6D016821F491
:102BE000803111430160DBE7386840F40030386021
:102BF000ECB326462868C043C00207D46A6FD8F8F1
:102C0000001021F000411143C8F800102868C043AB
:102C1000C00008D4D5F8B820DBF8001021F48041BA
:102C20001143CBF800102868C043800207D4EA6E35
:102C3000D8F8001021F080711143C8F800102868FE
:102C4000C04340000CD4DBF8001021F40041CBF865
:102C50000010DBF80010D5F8BC201143CBF80010B1
:102C60002868C04308D437486A6D016800E018E05E
:102C700021F04051114301602868C043000208D48C
:102C8000D5F88C20DAF8001021F440011143CAF87D
:102C9000001028790024C04300F0010020430AD02E
:102CA0000FE0D5F88020DAF8001021F440711143CC
:102CB000CAF800109EE70198002101F0E9FF00B179
:102CC00006462879C04300F00200204305D1019850
:102CD000012101F0DDFF00B106462879C04300F074
:102CE0000400204305D10198022101F0D1FF00B179
:102CF00006462879C04300F00800204305D100981B
:102D0000002102F055F800B106462879C04300F0D2
:102D10001000204305D10098012102F049F800B1CC
:102D200006462879C04300F02000044304D10098EF
:102D3000022102F03DF800B916B10120BDE8FE8F76
:102D40000020FBE74C4402582DE9F05F04000F46D9
:102D50007ED0DFF83882D8F8000000F00F00B842CB
:102D60000CD2D8F8001021F00F013943C8F8001038
:102D7000D8F8000000F00F00B84269D12078844DE7
:102D800040070AD52069296801F07001884204D9FA
:102D9000296821F070010143296020787C4E361D9E
:102DA00000070AD56069316801F07001884204D9D2
:102DB000316821F07001014331602078C0060AD5E6
:102DC000A069316801F4E061884204D9316821F4D6
:102DD000E061014331602078DFF8B4B180060BF187
:102DE000080B0CD5E1695846DBF8002002F07002B0
:102DF000914204D9026822F070020A4302602078EE
:102E000080070AD5E068296801F00F01884204D9DB
:102E1000296821F00F01014329602078C0073ED0C6
:102E20005B49A2682868183920F470601043286054
:102E30006068022818D0032819D00968012819D021
:102E4000490700294ADADFF848A1AAF1080A00E098
:102E500044E0DAF8002022F007020243CAF800201A
:102E6000FEF75AFE814612E009688903E9E709681E
:102E70008901E6E7C905E4E7FEF74EFEA0EB09018C
:102E800041F28830814202D90320BDE8F09F616899
:102E9000DAF8000000F03800B0EBC10FECD1207878
:102EA00080070AD5E068296801F00F01884204D242
:102EB000296821F00F0101432960D8F8001040462D
:102EC00001F00F01B9420BD9016821F00F0139431C
:102ED0000160006800F00F00B84201D00120D4E783
:102EE000207840070AD52069296801F070018842DE
:102EF00004D2296821F0700101432960207800077D
:102F00000AD56069316801F07001884204D23168E5
:102F100021F07001014331602078C0060AD5A06914
:102F2000316801F4E061884204D2316821F4E06143
:102F300001433160207880060CD5E1695846DBF802
:102F4000002002F07002914204D2026822F0700266
:102F50000A43026000F09AF80E492A682B68C2F30F
:102F6000032203F00F038A5CC95C02F01F0201F028
:102F70001F01D040084A20FA01F11160074908609A
:102F800007480068BDE8F05FFEF7A2BF00200052CE
:102F900018440258286900085C00002458000024E6
:102FA0005000002470B5144C3F220260124A24687D
:102FB0000832131D114D04F00704446016681C1DEF
:102FC00006F470668660166806F00F06C660126822
:102FD00002F0700202611A6802F0700242611A681F
:102FE00002F4E0628261226802F07002C261286825
:102FF00000F00F00086070BD10440258002000521D
:1030000030B500F043F80B4A0B490C4B15681468B7
:10301000C5F3032204F00F048A5C095D02F01F026D
:1030200001F01F01D040064A20FA01F1196010603A
:10303000084630BD18440258286900085C00002486
:103040005800002400B5FFF7DBFF05490968054A71
:10305000C1F30211515C01F01F01C84000BD000026
:103060001C4402582869000800B5FFF7C9FF05494C
:103070000968054AC1F30221515C01F01F01C840F3
:1030800000BD00001C44025828690008454970B57D
:1030900045480968434B103B11F0380208D0011134
:1030A000082A03D0102A0BD0182A0BD0084670BD6E
:1030B00019688906FBD51968C1F3C101C84070BD04
:1030C0003A4870BD3749374D18310C1D24350A6810
:1030D000096826682D6802F0030406F00102C1F3B6
:1030E0000511C5F3CC0515FB02F200EE102AB8EE6F
:1030F000400AE9B32F4ADFED2E0AB7EE001A6CB191
:10310000DFED2D1A012C01D0022C43D002EE101A53
:103110001068F8EE422A81EEA22A1EE01C68A4067E
:1031200011D51B6801EE901A1168C3F3C103F8EEC4
:10313000612AD84001EE900AC1F30800F8EE611A46
:1031400081EEA22A0BE001EE901ADFED1C2A00BFEF
:10315000F8EE611A106882EEA12AC0F3080001EEB1
:10316000900AF8EE611A40EE201A31EE810A00E072
:1031700015E022EE000A1068C0F34620401C00EE65
:10318000900AF8EE600A80EE201ABCEEC10A10EE3A
:10319000100A70BD01EE901ADFED092AD8E7002071
:1031A00070BD0000104402580090D00340787D01AB
:1031B00000000039304402580024744A0024744C42
:1031C00020BCBE4B2DE9F05F04007DD0FF4F20787E
:1031D000FE4D1837DFF8F493103DC00748D0D9F8FA
:1031E0000000396800F03800102815D0182803D1E5
:1031F00001F0030002280FD06068B0F5803F12D0C4
:1032000010B1B0F5A02F18D0286820F480302860C5
:10321000286820F4802009E02868800328D56068A9
:103220000028D2D024E0286840F48030286060680C
:1032300088B1FEF771FC064609E0286840F480205A
:103240002860F0E7FEF768FC801B64286FD82868C8
:103250008003F7D50CE0FEF75FFC064605E000BFF3
:10326000FEF75AFC801B6428F0D828688003F7D446
:10327000207841F20308D54E0C3E800769D5D9F875
:103280000000396810F038000ED0182801D18807E6
:103290000AD0E06890B3296821F019010143296040
:1032A000FEF73AFC824631E02868400702D5E06824
:1032B00000288AD0E168286820F0190008432860B7
:1032C000FEF72AFC824607E0DFE000BFFEF724FCA1
:1032D000A0EB0A000228B9D828684007F6D500BF3D
:1032E000FEF714FC40451BD82069402812D03168F5
:1032F00021F47C3141EA003030602AE018E000BF60
:10330000FEF70AFCA0EB0A0002289FD828684007B5
:10331000F6D5E5E7306820F47C3040F40030EBE788
:10332000207C316821F0FE4141EA0060E4E70DE1D4
:10333000286820F001002860FEF7EEFB824605E0D9
:10334000FEF7EAFBA0EB0A0002288DD828684007A8
:10335000F6D42078C0065DD5D9F80000DFF86CB24D
:10336000396800F03800ABF1040B082810D0182899
:1033700003D101F0030001280AD0E0690028286881
:1033800038D040F080002860FEF7C6FB824623E07C
:103390002868C00523D5E069802876D11FE0206A1F
:1033A000202821D0316821F0F84141EA8060306066
:1033B00030E000BF94F82010DBF8002022F07C52AF
:1033C00042EA0161CBF8001024E000BFFEF7A4FB45
:1033D000A0EB0A00022898D82868C005F6D5FEF7A9
:1033E00095FB4045E6D8DAE7306820F0F84040F039
:1033F0008040DCE720F080002860FEF78DFB064669
:1034000005E000BFFEF788FB801B02289DD82868D6
:10341000C005F7D42078000729D56C48616964306D
:1034200000298046016811D041F001010160FEF7DA
:1034300073FB064605E000BFFEF76EFB801B02280B
:10344000C9D8D8F800008007F6D510E021F00101B6
:103450000160FEF761FB064605E000BFFEF75CFB7E
:10346000801B022872D8D8F800008007F6D4207894
:10347000800623D5A0690028286810D040F4805029
:103480002860FEF749FB064605E036E1FEF744FBFF
:10349000801B02285AD828688004F7D50EE020F453
:1034A00080502860FEF738FB064604E0FEF734FB48
:1034B000801B02284AD828688004F7D42078400767
:1034C0004FD5DFF80C81D8F8001041F48071C8F8AE
:1034D0000010FEF721FB064605E000BFFEF71CFBCF
:1034E000801B642832D8D8F80000C005F6D5374EC6
:1034F000A068603601280AD008B1052813D03068CA
:1035000020F001003060306820F0040002E03068F4
:1035100040F001003060A06841F2883A90B1FEF7B7
:10352000FBFA80460AE0306840F004003060EEE7C5
:10353000FEF7F2FAA0EB0801514507D83068800782
:10354000F6D50EE0FEF7E8FA804607E084E000BF1B
:10355000FEF7E2FAA0EB080151457DD830688007FC
:10356000F6D4606AB0B3DFF86480D9F8001008F1CF
:1035700020084FF6F87B08F10409C1F3C2010329C2
:10358000A8F1040A69D00228286820F08070286019
:1035900003D0FEF7C1FA044684E0FEF7BDFA064602
:1035A00005E000BFFEF7B8FA801B022877D828682C
:1035B0008001F7D4E26A40F2F331386854F8283FCA
:1035C000884340EA02101843386004E0104402586F
:1035D00000480258B5E0217B434622894FF4FE0C97
:1035E000208A4FF0FE474902267D521E401EA1F55B
:1035F0000071C2F308088AB2761E0CEA004042EA63
:1036000008020243504607EA06610A431A60DAF8E4
:10361000002022F00102CAF80020D9F80020266A12
:1036200022EA0B0242EAC602C9F80020DAF80010CA
:10363000A26921F00C011143CAF800100168E26987
:1036400021F0020111430160016841F48031016001
:10365000016841F4003101E021E027E001600168E8
:1036600041F480210160016841F001010160286896
:1036700040F080702860FEF74FFA044605E000BF76
:10368000FEF74AFA001B022809D828688001F7D5FE
:1036900057E000BFFEF740FA001B022802D90320C2
:1036A000BDE8F09F28688001F4D44AE03968012819
:1036B000D8F8000021D0A26A01F0030393421CD184
:1036C000E26AC1F305118A4217D1216BC0F30802E7
:1036D000491E8A4211D1616BC0F34622491E9142B4
:1036E0000BD1A16BC0F30642491E914205D1E16B9B
:1036F000C0F30660491E814201D00120D0E7A16CD1
:103700004E46D9F80000C0F3CC00814219D0DAF857
:103710000000554620F00100CAF80000FEF7FCF951
:103720004FEA0007FEF7F8F9B842FBD0A26C306808
:1037300020EA0B0040EAC2003060286840F0010037
:1037400028600020ACE7704770477047F0B590F8EC
:103750003C20012A3BD01F4E012480F83C4002222D
:1037600080F83D2002681C4D5368B242D2F808C070
:1037700001D0AA4203D14F6823F470033B430F6882
:1037800023F070031F4357600268B24213D0B2F1B6
:10379000804F10D0114B9A420DD0114B9A420AD053
:1037A000104B9A4207D0AA4205D00F4B9A4202D042
:1037B0000E4B9A4204D189682CF080031943916022
:1037C000002180F83D4080F83C100846F0BD022002
:1037D000F0BD000000000140000401400004004072
:1037E00000080040000C004000180040004001406C
:1037F00010B5040003D094F83D0010B107E001209B
:1038000010BD002084F83C00204600F023F8022080
:1038100084F83D002068211D01F08AFC012084F815
:10382000480084F83E0084F83F0084F8400084F8A3
:10383000410084F8420084F8430084F8440084F88E
:10384000450084F8460084F8470084F83D000020D5
:1038500010BD000008B50068B0F1804F08D10548E0
:10386000016841F001010160006800F00100009072
:1038700008BD0000E844025890F83D10012901D02D
:1038800001207047174A022180F83D100168CB687B
:1038900043F00103CB600068904214D0B0F1804F38
:1038A00011D0114988420ED0104988420BD01049DE
:1038B000884208D00F49884205D00F49884202D07B
:1038C0000E49884207D181680D4A1140062906D069
:1038D000B1F5803F03D0016841F001010160002093
:1038E0007047000000000140000400400008004054
:1038F000000C00400004014000180040004001405E
:103900000700010070B5044690F83C00002501282E
:1039100014D03A4B012684F83C60022084F83D0024
:1039200022689068184020F47F40906008687028F2
:103930002FD010DC10F00F0F03D022E04FF0020068
:1039400070BD4FEA2012072A1BD2DFE802F0535362
:1039500053534B394100B0F1101F4BD009DCB0F587
:10396000805F0FD0B0F5005F1ED0B0F5801F08D18A
:1039700040E0A0F5801120393CD010293AD0202910
:1039800038D0012584F83D60002084F83C002846AA
:1039900070BD4A682068D1E9021301F03CFC206840
:1039A000816841F0770109E04A682068D1E9021393
:1039B00001F031FC2068816841F480418160E1E7D9
:1039C000CA684968206801F0D3FD2068502106E0EC
:1039D000CA684968206801F0DCFD2068602101F0B8
:1039E00023FCCFE7CA684968206801F0C1FD206860
:1039F0004021F4E7226801461046F0E788FFCEFF39
:103A00002DE9F04104000D4603D094F83D0018B1B3
:103A100008E00120BDE8F081002084F83C00204649
:103A200000F04CF8244A022084F83D0020688168A8
:103A3000114081602068211D01F07AFB226840F26C
:103A40000336AF6940F60C4C2B684FF2F00EA868B5
:103A500091680B439169B14341EA07210843D5E9D5
:103A6000031720EA0C00D5E9076C20EA0E00D2F813
:103A700020E03F0140EA062668686D69314347EA65
:103A80000C37936023680F4301219F612EF0AA0237
:103A900042EA051322681843106284F8481084F83B
:103AA0003E1084F83F1084F8441084F8451084F8E0
:103AB0003D100020AEE70000F8BFFEFF10B586B055
:103AC000044614216846FCF7B3FE12492068884278
:103AD0001ED11148016841F002010160006800F048
:103AE000020005900C480838016841F001010160AE
:103AF00000680021C02200F0010005900220009221
:103B0000CDE90101CDE9031004486946FDF7E2FE65
:103B100006B010BD00040040E844025800000258FE
:103B200070B504464FF0020094F83E2094F83F50E0
:103B300094F8446094F8453021B104290DD0012A4D
:103B40001AD113E0012A17D1012E15D184F83E00B5
:103B500084F844000021206820E0012D0CD1012BC5
:103B60000AD184F83F0084F8450014E0012D03D108
:103B7000012E01D1012B01D0012070BD84F83E003F
:103B800084F83F0084F8440084F84500012220684E
:103B9000002101F033FB20680122042101F02EFBFB
:103BA0002068016841F001010160002070BD70478C
:103BB0002DE9F041044600680027C6680569A90799
:103BC00013D5B10711D5FA1E0261012121772068B2
:103BD00080698007204602D0FFF7E9FF04E000F08B
:103BE000B1F8204600F073F92777680716D57007FB
:103BF00014D5226802206FF004011161207720683B
:103C0000806910F4407F204602D0FFF7D0FF04E027
:103C100000F098F8204600F05AF92777280715D5C4
:103C2000300713D5226804206FF008011161207756
:103C30002068C0698007204602D0FFF7B8FF04E083
:103C400000F080F8204600F042F92777E80616D504
:103C5000F00614D5226808206FF01001116120775A
:103C60002068C06910F4407F204602D0FFF79FFF14
:103C700004E000F067F8204600F029F92777E8070C
:103C800008D0F00706D021686FF0010008612046D7
:103C900000F0A6F9280601D4A80408D5300606D5F8
:103CA00021686FF4025008612046FFF74DFDE805DA
:103CB00008D5300606D521686FF48070086120466B
:103CC000FFF741FD680608D5700606D521686FF03C
:103CD00040000861204600F08DF9A8060AD5B0061C
:103CE00008D521686FF0200008612046BDE8F0414A
:103CF000FFF72BBDBDE8F08110B586B00446142156
:103D00006846FCF795FD2068B0F1804F14D10B4850
:103D1000016841F00101016000680021022200F009
:103D20000100059001200090CDE90121CDE90310AB
:103D300003486946FDF7CEFD06B010BDE0440258C9
:103D400000000258704770B5044690F83C00002609
:103D50000D4601280BD0012084F83C000C2A4AD0E3
:103D600007DC82B1042A20D0082A06D131E00220E3
:103D700070BD102A53D0142A63D00126002084F885
:103D80003C00304670BD206801F058FA2068816917
:103D900041F0080181612068816921F0040181619D
:103DA00020682A698169114311E0206801F098FABE
:103DB0002068816941F4006181612068816921F492
:103DC0008061816120682969826942EA01218161FB
:103DD000D4E7206801F0D0FA2068C16941F00801F9
:103DE000C1612068C16921F00401C16120682A69AC
:103DF000C169114311E0206801F00AFB2068C16924
:103E000041F40061C1612068C16921F48061C16130
:103E100020682969C26942EA0121C161AEE72068D0
:103E200001F032FB2068416D41F0080141652068D6
:103E3000416D21F00401416520682A69416D1143FB
:103E400011E0206801F05AFB2068416D41F40061E7
:103E500041652068416D21F48061416520682969D0
:103E6000426D42EA0121416588E710B5040003D0A4
:103E700094F83D0010B107E0012010BD002084F847
:103E80003C00204600F022F8022084F83D00206823
:103E9000211D01F04DF9012084F8480084F83E000E
:103EA00084F83F0084F8400084F8410084F8420020
:103EB00084F8430084F8440084F8450084F8460000
:103EC00084F8470084F83D00002010BD704770471B
:103ED00030B504464FF0020269B1042912D0082916
:103EE00017D00C291CD0102921D094F843000128A8
:103EF00024D0012030BD94F83E000128F9D184F887
:103F00003E201DE094F83F000128F2D184F83F20C4
:103F100016E094F840000128EBD184F840200FE02F
:103F200094F841000128E4D184F8412008E094F895
:103F300042000128DDD184F8422001E084F84320CA
:103F40000122206801F05AF91B4B20681B491C4ACA
:103F5000984209D0884207D0904205D0194DA84216
:103F600002D0194DA84203D1456C45F40045456483
:103F70002068984212D0B0F1804F0FD0134B984276
:103F80000CD0134B984209D0124B984206D088426D
:103F900004D01149884201D0904207D181680F4A6C
:103FA0001140062906D0B1F5803F03D0016841F0E9
:103FB00001010160002030BD00000140000401400B
:103FC000004001400044014000480140000400401E
:103FD00000080040000C00400018004007000100ED
:103FE00000680349884201D1FDF73CBF70470000DB
:103FF00000140040704730B590F88410012918D0A3
:10400000012280F884202421C0F888100022202476
:1040100001680B680D6823F0005325F001050D6061
:10402000426601680B60C0F8884080F88420104622
:1040300030BD022030BD70B5044690F884000128E0
:104040001DD0012284F884202420C4F88800206830
:104050000568026822F0010202602068826822F08E
:1040600060620A438260204601F0A6FA226820219D
:1040700000201560C4F8881084F8840070BD022008
:1040800070BD70B5044690F8840001281DD001224F
:1040900084F884202420C4F8880020680568026819
:1040A00022F0010202602068826822F060420A4326
:1040B0008260204601F080FA2268202100201560ED
:1040C000C4F8881084F8840070BD022070BD10B55B
:1040D000040003D0D4F8880010B107E0012010BD1F
:1040E000002084F88400204600F026F82420C4F83C
:1040F00088002068016821F001010160A06A10B108
:10410000204601F07BFA204601F05CFB0128E6D056
:104110002068416821F4904141602068816821F065
:104120002A0181602068016841F001010160204698
:10413000BDE8104001F0C6BA2DE9F041B6B0044622
:10414000142130A8FCF774FBC0216846FCF770FB13
:104150002D49022620680727294D0024DFF8A48076
:1041600088421FD100201F940121CDE9001068462C
:10417000FEF714F908B1FDF77DFB21481030016806
:1041800041F010010160006800F0100035902868CF
:1041900040F001002860286800F0010035904FF4DD
:1041A000C06020E01949884226D100201E940221D7
:1041B000CDE900106846FEF7F1F808B1FDF75AFBAB
:1041C0000F480830016841F400310160006800F4D4
:1041D00000303590286840F001002860286800F021
:1041E000010035900C203090CDE93164CDE93347A2
:1041F00030A94046FDF76EFB36B0BDE8F081000007
:10420000E044025800000258001001400044004001
:10421000FEE701688A69D243920701D400228A62CC
:1042200000688169C943C90703D0816941F0010170
:10423000816170472DE9F0470446006800268946F1
:1042400017464FF0200835468169C90641D510212F
:10425000C1612FE0B9F1FF3F2CD0FDF75DFCC11B20
:10426000494502D8B9F1000F24D12068426894F87A
:104270004210836902F48042DB431B0415D4B2F57B
:10428000804F12D0202910D0416841F48041416014
:10429000FDF742FC074608E0FDF73EFCC01B19286D
:1042A00003D9012645F0200504E020688069C04359
:1042B0008006F1D420688069C043800602D5002EB4
:1042C000C8D003E016B92168C1F81C80012645F06A
:1042D000040521688869C20505D54FF48072CA615A
:1042E00045F00105012641050AD5216880054FF4F6
:1042F000806245F00805CA614FF0010602D40AE069
:10430000800507D5206801264FF4007145F00205AD
:10431000C16100E08EB12046FFF77BFF20680021DD
:10432000074F43683B404360606C2843606484F8F7
:10433000418084F8421084F840103046BDE8F08790
:1043400000E800FE70B50068C1F3090141EA0241CE
:10435000074D049C19434FF480664268214306EAE6
:1043600054532B439A4321F000410A43426070BDED
:10437000FF63FF032DE9F0411D4617460E46044634
:10438000DDF8188028E0424629462046FFF752FF14
:1043900010B10120BDE8F081681C1DD0FDF7BCFB09
:1043A000A0EB0800A84200D8B5B92068806936EAB9
:1043B00000000FD00020B8420ED1626C002084F8BB
:1043C0004000202142F02002626484F8411084F809
:1043D0004200DEE70120EEE72068806936EA00004F
:1043E00004D00020B842CED00020D3E70120F9E766
:1043F00070B516460D4604461FE032462946204653
:10440000FFF718FF08B1012070BDFDF785FB801B89
:10441000A84200D88DB920688069C04380060CD5B9
:10442000626C002084F84000202142F02002626487
:1044300084F8411084F84200E5E720688069C043B1
:104440008006DAD4002070BD70B516460D460446CD
:1044500021E0324629462046FFF7ECFE08B1012054
:1044600070BD681C17D0FDF757FB801BA84200D811
:104470008DB920688069C04380070CD5626C00202C
:1044800084F84000202142F02002626484F8411048
:1044900084F84200E3E720688069C0438007D8D4ED
:1044A000002070BD00B587B006491C226846FCF7A5
:1044B0006BF90021684601F051FC0349C86007B060
:1044C00000BD0000E46800083C00002470B586B020
:1044D00014216846FCF7ACF92A48016841F08001D4
:1044E0000160016801F080010591016841F004015B
:1044F0000160016801F004010591016841F00101CA
:104500000160016801F001010591016841F00201BB
:10451000016000684FF4C0751B4E002200F00200DD
:10452000294605903046FDF7EBFA002407204FF4AA
:1045300088118DE8130069463046FDF7CBF901205C
:104540000095CDE90104694630460394FDF7C2F9B0
:10455000002209210620FDF76FFD0620FDF75EFD14
:1045600000220A210720FDF767FD0720FDF756FD11
:1045700000220B210820FDF75FFD0820FDF74EFD0E
:1045800006B070BDE04402580008025813480021EC
:1045900010B5114C0123124A0460C0E90121C0E9A1
:1045A000033141618161C1610162FDF711FB08B115
:1045B000FDF760F909480021FDF7B4FA08B1FDF7ED
:1045C00059F906480021FDF7D9FA002803D0BDE8C3
:1045D0001040FDF74FB910BD0054004028030024DF
:1045E000B175703010B58EB000241C21009407A85E
:1045F000019402940394049405940694FCF718F92A
:104600001D484FF47A71F0224FF08043C0E9024117
:1046100004618461C0E90032FFF7EAF808B1FDF7F0
:1046200029F94FF48050009013486946FFF76AF962
:1046300008B1FDF71FF91048FFF717FC08B1FDF7A7
:1046400019F90D4804A904940694FFF77FF808B1FE
:10465000FDF710F96020CDE907040748002207A9FB
:1046600009940B94FFF76FFB08B1FDF703F90248BB
:10467000FFF742FB0EB010BD7C03002410B58CB0D8
:1046800024216846FCF7D4F8154800244FF6FF7241
:10469000124B099401210A940B94C0E90034C0E93B
:1046A000024204618461CDE90014CDE9021404944E
:1046B000CDE90541694607940894FFF7A1F908B1CF
:1046C000FDF7D8F8064809A909940B94FFF73EF8BE
:1046D000002801D0FDF7CEF80CB010BD000400405A
:1046E000C80300241848002110B5164C0C224FF4C2
:1046F000E1330460C0E90131C160C0E904128161A5
:10470000C161016241628162FFF7E1FC08B1FDF71E
:10471000B1F80D480021FFF7B4FC08B1FDF7AAF885
:1047200009480021FFF787FC08B1FDF7A3F8064808
:10473000FFF761FC002803D0BDE81040FDF79AB8F0
:1047400010BD00000010014014040024184800218E
:1047500010B5164C0C224FF4E1330460C0E901316E
:10476000C160C0E904128161C1610162416281627C
:10477000FFF7ADFC08B1FDF77DF80D480021FFF70C
:1047800080FC08B1FDF776F809480021FFF753FCDB
:1047900008B1FDF76FF80648FFF72DFC002803D09D
:1047A000BDE81040FDF766B810BD000000440040B1
:1047B000A804002400B587B014216846FCF738F837
:1047C0000C48016841F0800101600068694600F012
:1047D000800005900848FDF77DF8002080210091B9
:1047E00001226946CDE9012003900448FDF772F8E3
:1047F00007B000BDE044025800000258001C0258F7
:10480000FEE7000010B50D4C00280DDD4FF0010251
:104810004FF007012046FDF773F900222046BDE85E
:1048200010400821FDF76CB94FF00002F0DA4FF0AC
:1048300007012046FDF764F90122EFE7000802585E
:10484000FEE7AE2010B500F095F8202000F092F8B9
:10485000102000F08FF8B02000F08CF8C82000F095
:1048600089F8002000F086F8102000F083F840203E
:1048700000F080F8812000F07DF8DF2000F07AF869
:10488000A12000F077F8A62000F074F8A82000F02E
:1048900071F83F2000F06EF8A42000F06BF8D320F0
:1048A00000F068F8002000F065F8D52000F062F80C
:1048B000F02000F05FF8D92000F05CF8222000F032
:1048C00059F8DA2000F056F8122000F053F8DB20F7
:1048D00000F050F8202000F04DF88D2000F04AF84C
:1048E000142000F047F800F007F800F00FF9BDE8D9
:1048F0001040AF2000F03EB802484FF48061FBF753
:1049000075BF0000090600243CB51C78203A059DBF
:10491000CDE90045E41DE5085C685B7815FB02F213
:1049200003FB024200F086F83CBD2DE9F8411E462B
:10493000154688460446079F09E03346414620460F
:104940000097FFF7E1FF70786D1C2044C4B22A780D
:10495000002AF2D1BDE8F88108B54FF0FF320B46CE
:104960007821009202460248FDF792F908BD000046
:10497000280300240249487002210148FFF7ECBFD8
:10498000620000242DE9FC4101F007048046072065
:104990001546CE081F46CDE9000302FA04F0C2B264
:1049A00023464146304600F08BF8002C0CD0601EA8
:1049B000C0B2CDE90007C4F10801701C25FA01F26C
:1049C0000023414600F07CF8BDE8FC812DE9FC4362
:1049D0001446814601F007021F4601F00705099EB3
:1049E00004FA02F04FEAD108E919082916D907217B
:1049F0002B46CDE90016C2B24946404600F060F8A9
:104A000078190938C5F10801C0B2CDE9000624FAC9
:104A100001F20023494608F1010007E0491E2B4638
:104A2000C9B2CDE90016C2B24946404600F048F886
:104A3000BDE8FC832DE9FF4F82B01C4693468846B3
:104A40000F98C708002600F0070001901AE000BF89
:104A5000029800250BEB060A00EB06090EE000BFEA
:104A600015FB04F108EBC50309F0FF0011F80A205B
:104A7000D9B2109BFFF786FF6D1CEDB2BD42EFD39C
:104A8000761CF6B2A642E3D30198002815D004FBA9
:104A900007F6002508EBC7070DE010987219009083
:104AA000F9B202981BF802204319D8B2019BFFF714
:104AB0008DFF6D1CEDB2A542EFD306B0BDE8F08FBF
:104AC000F0B50828DDE905741AD2802918D20CB196
:104AD000D243D2B2FF257F1CC3F10806094B05FA69
:104AE00007F444EA0207F540A24303EBC013AA43CC
:104AF00047EA0504044D585C204010432A7058547E
:104B0000F0BD0000090600246000002470B5104DBF
:104B100040205FF0000405F18106287004F1B00028
:104B2000C0B2FFF727FF0020FFF724FF1020FFF798
:104B300021FF8022681C06EBC411FBF7E0FD04484E
:104B40008121FFF709FF641CE4B2082CE6D370BD95
:104B50008805002498B03D4D00243D4E14210DA839
:104B6000FBF766FE142112A8FBF762FE049405947D
:104B700006940794089409940A940B940C94FCF7F7
:104B80005FFE95ED050A33A1024612A8B7EEC00AF2
:104B90008DED020B95ED040AB7EEC00A8DED000B0A
:104BA000FBF7D6FC96ED000A30A10DA8B7EEC00ABF
:104BB00053EC102BFBF7CCFC95ED060A2DA104A8B5
:104BC000B7EEC00A53EC102BFBF7C2FC95ED090AB7
:104BD0002AA107A8B7EEC00A53EC102BFBF7B8FCCC
:104BE00095ED0B0A27A10AA8B7EEC00A53EC102BCB
:104BF000FBF7AEFCFFF780FE0121244B12AA08460A
:104C00000094FFF792FE214B0C21012000940DAA85
:104C1000FFF78BFE1D4B18210120009404AAFFF71B
:104C200084FE1A4B24210120009407AAFFF77DFE81
:104C3000164B3021012000940AAAFFF776FEFFF7F9
:104C400065FF322001F0AEFB88E700000000002481
:104C5000380000246B703A252E64206B693A252EAB
:104C60003166206B643A252E31660000533A252EBA
:104C700031660000743A252E31660000653A252E13
:104C8000316600006F3A252E31660000AC6D0008D9
:104C90002DE9F047454D044689464FF0000A286843
:104CA000C04380070AD0414E283E306820F0806023
:104CB0003060FCF731FF0746B04608E00120BDE850
:104CC000F08700BFFCF728FFC01B022867D8D8F880
:104CD00000000001F6D4206829684FF4FE0721F493
:104CE0007C313E0241EA00302860207AA389B4F882
:104CF00004C040022D4D2D495B1E227CACF1010CFD
:104D00001035091DA0F5007080B2521ECCF3080CBE
:104D100007EA034340EA0C00184306EA0262104324
:104D200028600868626920F0C000104308600A68C3
:104D3000A06922F0200202430A60281D0A6822F0BE
:104D400010020A6002684FF6F873E4699A4342EA77
:104D5000C40202600868B9F1000F40F010020A6056
:104D600011D00868B9F1010F11D040F400100860AB
:104D7000D8F80000444640F08060C8F80000FCF716
:104D8000CBFE05460DE0086840F40020EFE740F454
:104D90008010ECE7FCF7C0FE401B022801D903207D
:104DA0008DE720680001F5D5504688E72844025871
:104DB0002DE9F047454D044689464FF0000A286822
:104DC000C04380070AD0414E283E306820F0805012
:104DD0003060FCF7A1FE0746B04608E00120BDE8C0
:104DE000F08700BFFCF798FEC01B022867D8D8F8F0
:104DF00000008000F6D4208829684FF4FE0721F0D7
:104E00007C713E0241EA00502860207AA389B4F800
:104E100004C040022D4D2D495B1E227CACF1010CDB
:104E20001835091DA0F5007080B2521ECCF3080C95
:104E300007EA034340EA0C00184306EA0262104303
:104E400028600868626920F44060104308600A68BE
:104E5000A06922F4007202430A60281D0A6822F445
:104E600080720A6002684FF6F873E4699A4342EA76
:104E7000C40202600868B9F1000F40F480720A6051
:104E800011D00868B9F1010F11D040F080700860AE
:104E9000D8F80000444640F08050C8F80000FCF705
:104EA0003BFE05460DE0086840F48000EFE740F463
:104EB0000000ECE7FCF730FE401B022801D903207C
:104EC0008DE720688000F5D5504688E728440258D1
:104ED0001CB501F0EFF9144802240023802213A12D
:104EE000CDE90040144801F0BFFB0F4800238022A9
:104EF000001D12A1CDE90040124801F0B5FB0A499E
:104F00000420002308318022CDE9000111480EA1C0
:104F100001F0AAFB01F0EEF9002001F069FA01208E
:104F200000F010FFFBE700003C0000244F4C45441C
:104F30005461736B00000000554B00085A445454F0
:104F400061736B00075C00086D6F746F725461735E
:104F50006B000000295D0008502010B580F3118817
:104F6000BFF34F8FBFF36F8F01F0D6FB18B1044929
:104F70004FF080500860002080F3118810BD0000C1
:104F800004ED00E030B59DB04C216846FBF750FCC5
:104F9000202113A8FBF74CFC0220FDF77FF82148E5
:104FA00000242149026842F44042026002680A6813
:104FB00042F001020A60096801F001011B910168D9
:104FC0008904FCD50220009040250495012103911D
:104FD00004220B923C23CDE90904CDE90C300FAB40
:104FE0000E900C2183E8130068461294FEF7EAF84D
:104FF00008B172B6FEE708221A95CDE91625D3014D
:1050000013AA3F200321CDE9185382E8130004219D
:1050100013A8FDF799FE002801D072B6FEE71DB077
:1050200030BD0000184802582C0400583348F0B531
:10503000334A016841F470010160106800F00F000C
:10504000072804D2106820F00F00C01D10602D4901
:1050500000202C4C10340B682B4D43F001030B60E7
:1050600020600B682B400B60136803F00F03072BC5
:1050700004D9136823F00F03DB1D1360214C234A6E
:105080001834234B261D371D20601E4C214D28341B
:105090003060261D3860371D23603B1D35601C1DA8
:1050A0003A60251D2E1D1860331D22602860326075
:1050B00018600A68134B184C22F4802260330A608F
:1050C000186020686FF30F00B0F1005F03D213493E
:1050D0000120C1F808010B48D4300168C9040BD481
:1050E000026843F2D2010E4B42F480520260196012
:1050F000016821F480510160F0BD000088ED00E0FE
:1051000000200052004402587FEDF6EA80020101BF
:10511000000202020000FF010010005C008000514C
:10512000004000520148FEF743BD00003C0500244A
:105130002DE9F047294B4FF0804A294D02689842EB
:10514000284E294F294C09D0504507D0A84205D0F8
:10515000B04203D0B84201D0A04205D1D1F804C07A
:1051600022F070024CEA0202DFF884C0DFF884808B
:105170009842DFF884900FD050450DD0A8420BD054
:10518000B04209D0B84207D0A04205D0604503D054
:10519000404501D0484503D1CD6822F440722A43EE
:1051A0008E684D6922F08002C6620E682A439842DA
:1051B000866207D0A04205D0604503D0404501D0AB
:1051C000484501D1096901630368012143F00403E3
:1051D000036041610260BDE8F0870000000001400B
:1051E0000004004000080040000C004000040140A2
:1051F00000400140004401400048014010B5046AED
:10520000012301F01F018B409C4304628A40016A24
:105210001143016210BD42EA032283680A4323F46A
:105220007F410A4382607047034B82681A400A43F9
:1052300042F00701816070478FFFCFFF2DE9F04FEB
:10524000DFF88480214EDFF88890DFF888B0026AAA
:10525000036AB042DFF880A022F0020C1F4F23F057
:1052600001020262426885698B680C6805EA0805DC
:1052700025F0030543EA0C0344EA050407D048453A
:1052800005D0584503D0504501D0B84205D1CD686E
:1052900023F008031D4325F00403B04207D048451E
:1052A00005D0584503D0504501D0B84205D122F46D
:1052B0004076D1E9055235432A434260846149680A
:1052C00041630362BDE8F08F8FFFFEFF00000140E5
:1052D00000040140004001400044014000480140FA
:1052E000F0B5DFF87CE01F4C1F4D026A036AA04254
:1052F00022F0200623F01003036242688369D1F88C
:1053000008C00F6803EA0E0323F4407E46EA0C133C
:105310004EEA072601D0A84206D1CF6823F08003C9
:1053200043EA071323F04003A0420AD0A84208D062
:105330000E4CA04205D00E4CA04202D00D4CA04213
:1053400007D1D1E9054522F4406242EA840242EAEB
:10535000850242608661496881630362F0BD000096
:10536000FF8FFFFE000001400004014000400140AB
:105370000044014000480140F0B5DFF87CE01F4DDB
:105380001F4E026A036AA84222F4007723F4807356
:1053900003624368C269D1F808C002EA0E020C68D1
:1053A00022F0030E47EA0C2244EA0E0401D0B04278
:1053B00006D1CF6822F4006242EA072222F480621A
:1053C000A8420AD0B04208D00E4DA84205D00E4DDA
:1053D000A84202D00D4DA84207D1D1E9055623F4C9
:1053E000405343EA051343EA06134360C461496826
:1053F000C1630262F0BD00008FFFFEFF00000140AC
:1054000000040140004001400044014000480140C8
:10541000F0B5046A026A22F4805202624268C369EB
:1054200024F40054DFF848C08E680D6803EA0C03CA
:10543000104F23F4407344EA0634B84243EA05238C
:105440000BD00D4DA84208D00C4DA84205D00C4DF4
:10545000A84202D00B4DA84204D14D6922F48042EB
:1054600042EA85124260C361496801640462F0BD8A
:10547000FF8FFFFE0000014000040140004001409A
:105480000044014000480140F0B5164F164B026A37
:10549000046A984222F4003524F48033036242689F
:1054A000436D0E890C6803EA070344EA030445EAE6
:1054B00006430BD00D4DA84208D00D4DA84205D093
:1054C0000C4DA84202D00C4DA84204D14D6922F4E3
:1054D000803242EA05224260446549688165036280
:1054E000F0BD00008FFFFEFF0000014000040140FE
:1054F000004001400044014000480140F0B5164F13
:10550000164B026A046A984224F48013036222F460
:1055100000144268436D0E890D6803EA070344EAEC
:10552000065443EA05230BD00D4DA84208D00D4D7B
:10553000A84205D00C4DA84202D00C4DA84204D17F
:105540004D6922F4802242EA85224260436549681F
:10555000C1650462F0BD0000FF8FFFFE0000014046
:105560000004014000400140004401400048014067
:1055700010B5036A046A23F00A0324F001040462EC
:1055800084690B4324F0F00141EA02118161036256
:1055900010BD10B5036A046A23F0A00324F01004C0
:1055A0000462846943EA011124F4704343EA02323D
:1055B0008261016210BD000030B5416EB9B1016871
:1055C0000D4B03F108048A688968C2F34262490FEF
:1055D0005D5C615C2D01B5FBF1F1A0F86A10995C8E
:1055E000A25C0901B1FBF2F1A0F8681030BD012105
:1055F000A0F86A10F8E700001869000890F8281071
:10560000090706D50168836B4A6822F400421A43F1
:105610004A6090F82810C90706D00168C36A4A6832
:1056200022F400321A434A6090F82810890706D500
:105630000168036B4A6822F480321A434A6090F88A
:105640002810490706D50168436B4A6822F4802276
:105650001A434A6090F82810C90606D50168C36B42
:105660008A6822F480521A438A6090F828108906CA
:1056700006D50168036C8A6822F400521A438A60D6
:1056800090F82810490611D50168436C4A6822F445
:1056900080121A434A60416CB1F5801F06D101683F
:1056A000836C4A6822F4C0021A434A6090F82810BA
:1056B000090606D50168C26C486820F40020104332
:1056C000486070472DE9F84300250446C0F8905023
:1056D000FCF722FA8046206820266FF07E4700689B
:1056E000000713D50022434631042046009700F0FE
:1056F0003FFA58B1216851E8000F20F0800041E8DE
:105700000002002AF6D1C4F8886021E02068006811
:10571000400722D5002243464FF4800120460097DF
:1057200000F026FAC8B1206850E8001F21F49071FB
:1057300040E80012002AF6D12068083050E8001F27
:1057400021F0010140E80012002AF5D1C4F88C6074
:10575000032084F88450BDE8F883C4F88860C4F856
:105760008C60E5662567002084F88450F3E700002C
:1057700010B5026852E8001F21F4907142E800134E
:10578000002BF6D10E4B0268083252E8001F194078
:1057900042E80014002CF6D1C16E012908D102683C
:1057A00052E8001F21F0100142E80013002BF6D14F
:1057B00000212022C0F88C20C166416710BD000086
:1057C000FEFFFFEF2DE9F04304468068D84E87B016
:1057D000D84B2168D4E90427D4F81CC010430A68C8
:1057E000002547EA0C073843324002430A6020682C
:1057F000E268416821F44051114341602268A16987
:105800009A4201D0206A01439768DFF82CC3CB4E3F
:10581000CB4807EA0C070F4397602168676ACA6A9A
:1058200022F00F023A43CA622268B2420ED10068E7
:1058300000F03800182873D047DCB8B3082879D0B6
:1058400010286FD178E028287ED17BE0BD498A42BC
:1058500009D1006800F00700062875D2DFE800F0E3
:10586000546A6C6E7072B8498A4209D1006800F0BF
:105870000700062868D2DFE800F0475D5F616365D6
:10588000B2498A4209D1006800F0070006285BD2BD
:10589000DFE800F03A5052545658AD498A420BD1D5
:1058A000006800F0070006284ED200E010E0DFE8B4
:1058B00000F02B4143454749A6498A420AD1006876
:1058C00000F03800182839D0B7DD2028BBD13CE0E3
:1058D00001203AE0A0498A4209D1006800F007009F
:1058E000062831D2DFE800F01026282A2C2E9B490A
:1058F0008A420BD1006800F00700062824D2DFE8B6
:1059000000F003191B1D1F2100201EE09A421BD12D
:105910008B48001D006800F00700062814D202E042
:105920000CE007E010E0DFE800F0030507090B0DCD
:1059300002200AE0042008E0082006E0102004E02D
:10594000202002E0402000E080208549DFF814821A
:105950009A42854A4FF400434FEA21174FF0000660
:105960004ED110281AD006DC022809D004280BD00A
:1059700008287CD10DE020283ED0402877D13DE09A
:10598000FCF7B6FB014610E06846FCF7C3FB019943
:105990000BE003A8FCF760FC049906E010688006A1
:1059A00005D51068C0F3C100C140002970D0606AFD
:1059B000676838F8102007EB4703B1FBF2F0834229
:1059C00055D8B0EB073F52D8002308461946FAF7DE
:1059D00047FD02467808130E120243EA012110180F
:1059E0003A4671410023FAF73BFD604AA0F5407149
:1059F00091423CD821688FE03946D8E71946D6E76E
:105A0000D4F81CC04FF6EF799C4546D1082819D030
:105A100005DC58B101280CD0042875D10DE0102800
:105A200015D0202835D040286ED134E0FDF70AFB90
:105A300001E0FDF719FB014610E06846FCF76AFB40
:105A400001990BE003A8FCF707FC049906E0106835
:105A5000800604D51068C0F3C100C140C1B1636ABB
:105A6000606838F81330B1FBF3F1490000E04BE017
:105A700001EB5001B1FBF0F0A0F11001494543D812
:105A80004FF6F0732168C0F342021840104343E020
:105A900043E03946E3E71946E1E7082819D005DC79
:105AA00058B101280CD004282ED10DE0102815D0B3
:105AB00020282BD0402827D12AE0FDF7C3FA01E0A7
:105AC000FDF7D2FA014610E06846FCF723FB019986
:105AD0000BE003A8FCF7C0FB049906E01068800601
